:020000040000FA
:040000002DEF01F0EF
:020004000000FA
:020008002CD0FA
:08001800D8CF08F1E8CF06F192
:100020009DB89EA801D016D09EBA05D006C1E8FFA3
:1000300008C1D8FF10000950AECFE3FF092AE350F2
:100040000B62F4D70950E806E806E3500C62EED7DD
:100050000D80ECD7082AEECFADFF060E08609D9804
:10006000E5D7F292E86A002A012201A402D0006AD0
:10007000016A00C08AFF01C08BFF0D8211000101DF
:1000800000C009F101C00AF1300E006F300E016F9F
:10009000300E026F300E036F030E0A6325D0E70E99
:1000A000096507D0E82A095F310E006F0A6BCCEFB3
:1000B00000F0830E096507D0E82A095F0A6B390E44
:1000C000016FCCEF00F01F0E096507D0E82A095F29
:1000D0000A6B380E016FCCEF00F00A6B370E016F20
:1000E000440E0927CCEF00F0020E0A631BD0BB0EB2
:1000F000096507D0E82A095F0A6B370E016FCCEF5C
:1001000000F0570E096507D0E82A095F0A6B360E22
:10011000016FCCEF00F00A6B350E016F0C0E092752
:10012000CCEF00F0010E0A6325D0F30E096507D06D
:10013000E82A095F0A6B350E016FCCEF00F08F0ED5
:10014000096507D0E82A095F0A6B340E016FCCEF0E
:1001500000F02B0E096507D0E82A095F0A6B330E01
:10016000016FCCEF00F00A6B320E016F380E0927D9
:10017000CCEF00F0C70E096507D0E82A095F0A6BCB
:10018000320E016FCCEF00F0630E096505D0E82A4E
:10019000095F0A6B310E016F590E096507D0E82A15
:1001A000095F0A6B390E026F24EF01F04F0E0965EB
:1001B00007D0E82A095F0A6B380E026F24EF01F0BE
:1001C000450E096507D0E82A095F0A6B370E026FF2
:1001D00024EF01F03B0E096507D0E82A095F0A6B9E
:1001E000360E026F24EF01F0310E096507D0E82AC0
:1001F000095F0A6B350E026F24EF01F0270E0965C7
:1002000007D0E82A095F0A6B340E026F24EF01F071
:100210001D0E096507D0E82A095F0A6B330E026FCD
:1002200024EF01F0130E096507D0E82A095F0A6B75
:10023000320E026F24EF01F0090E096505D0E82A9D
:10024000095F0A6B310E026F0951032701EE00F0BE
:10025000086A9D8800010D9212000001948C948E12
:10026000AA86B06A440EAF6E240EAC6EAC8AAB8820
:10027000AB8E9F989F9A9D989D8A066A076A086A26
:10028000096A0D6A01EE00F012EE00F022EE00F0B5
:100290000A0E0B6E0D0E0C6E0CC004F10BC005F1B6
:1002A000FF0E006EFF0E016E00C08AFF01C08BFFC3
:1002B00093909392939493969398939A939C939EEE
:1002C00094909492D08EF292F288F28EF28C0DB2CB
:1002D0003FEC00F00DA0FBD70D90026A036AE86ABC
:1002E000090609061BE0090622EE00F0DECF04F045
:1002F000300E045C0226E86A032209060FE60A0EA5
:100300000202F4CF05F0F3CF04F00A0E0302F3501B
:10031000052604C002F005C003F0E8D7096A02C050
:1003200000F003C001F000C08AFF01C08BFF0D8206
:02033000CED726
:020000040030CA
:01000100C638
:010003003EBE
:010006008178
:00000001FF
